{
  "_format": "hh-sol-artifact-1",
  "contractName": "Tickbit",
  "sourceName": "contracts/Tickbit.sol",
  "abi": [
    {
      "inputs": [],
      "stateMutability": "nonpayable",
      "type": "constructor"
    },
    {
      "anonymous": false,
      "inputs": [
        {
          "indexed": true,
          "internalType": "address",
          "name": "_owner",
          "type": "address"
        },
        {
          "indexed": true,
          "internalType": "uint256",
          "name": "_id",
          "type": "uint256"
        },
        {
          "indexed": false,
          "internalType": "string",
          "name": "title",
          "type": "string"
        },
        {
          "indexed": false,
          "internalType": "uint256",
          "name": "city",
          "type": "uint256"
        },
        {
          "indexed": false,
          "internalType": "string",
          "name": "description",
          "type": "string"
        },
        {
          "indexed": false,
          "internalType": "string",
          "name": "artist",
          "type": "string"
        },
        {
          "indexed": false,
          "internalType": "string",
          "name": "coverImageUrl",
          "type": "string"
        },
        {
          "indexed": false,
          "internalType": "uint256",
          "name": "category",
          "type": "uint256"
        },
        {
          "indexed": false,
          "internalType": "bool",
          "name": "visibility",
          "type": "bool"
        }
      ],
      "name": "EventItemCreated",
      "type": "event"
    },
    {
      "anonymous": false,
      "inputs": [
        {
          "indexed": true,
          "internalType": "address",
          "name": "previousOwner",
          "type": "address"
        },
        {
          "indexed": true,
          "internalType": "address",
          "name": "newOwner",
          "type": "address"
        }
      ],
      "name": "OwnershipTransferred",
      "type": "event"
    },
    {
      "inputs": [
        {
          "internalType": "string",
          "name": "title",
          "type": "string"
        },
        {
          "internalType": "uint256",
          "name": "city",
          "type": "uint256"
        },
        {
          "internalType": "string",
          "name": "description",
          "type": "string"
        },
        {
          "internalType": "string",
          "name": "artist",
          "type": "string"
        },
        {
          "internalType": "string",
          "name": "coverImageUrl",
          "type": "string"
        },
        {
          "internalType": "uint256",
          "name": "category",
          "type": "uint256"
        }
      ],
      "name": "createEvent",
      "outputs": [],
      "stateMutability": "nonpayable",
      "type": "function"
    },
    {
      "inputs": [],
      "name": "owner",
      "outputs": [
        {
          "internalType": "address",
          "name": "",
          "type": "address"
        }
      ],
      "stateMutability": "view",
      "type": "function"
    },
    {
      "inputs": [],
      "name": "readAllEvents",
      "outputs": [
        {
          "components": [
            {
              "internalType": "address",
              "name": "_owner",
              "type": "address"
            },
            {
              "internalType": "uint256",
              "name": "_id",
              "type": "uint256"
            },
            {
              "internalType": "string",
              "name": "title",
              "type": "string"
            },
            {
              "internalType": "uint256",
              "name": "city",
              "type": "uint256"
            },
            {
              "internalType": "string",
              "name": "description",
              "type": "string"
            },
            {
              "internalType": "string",
              "name": "artist",
              "type": "string"
            },
            {
              "internalType": "string",
              "name": "coverImageUrl",
              "type": "string"
            },
            {
              "internalType": "uint256",
              "name": "category",
              "type": "uint256"
            },
            {
              "internalType": "bool",
              "name": "visibility",
              "type": "bool"
            }
          ],
          "internalType": "struct Tickbit.EventItem[]",
          "name": "",
          "type": "tuple[]"
        }
      ],
      "stateMutability": "view",
      "type": "function"
    },
    {
      "inputs": [
        {
          "internalType": "uint256",
          "name": "id",
          "type": "uint256"
        }
      ],
      "name": "readEvent",
      "outputs": [
        {
          "components": [
            {
              "internalType": "address",
              "name": "_owner",
              "type": "address"
            },
            {
              "internalType": "uint256",
              "name": "_id",
              "type": "uint256"
            },
            {
              "internalType": "string",
              "name": "title",
              "type": "string"
            },
            {
              "internalType": "uint256",
              "name": "city",
              "type": "uint256"
            },
            {
              "internalType": "string",
              "name": "description",
              "type": "string"
            },
            {
              "internalType": "string",
              "name": "artist",
              "type": "string"
            },
            {
              "internalType": "string",
              "name": "coverImageUrl",
              "type": "string"
            },
            {
              "internalType": "uint256",
              "name": "category",
              "type": "uint256"
            },
            {
              "internalType": "bool",
              "name": "visibility",
              "type": "bool"
            }
          ],
          "internalType": "struct Tickbit.EventItem",
          "name": "",
          "type": "tuple"
        }
      ],
      "stateMutability": "view",
      "type": "function"
    },
    {
      "inputs": [],
      "name": "readMyEvents",
      "outputs": [
        {
          "components": [
            {
              "internalType": "address",
              "name": "_owner",
              "type": "address"
            },
            {
              "internalType": "uint256",
              "name": "_id",
              "type": "uint256"
            },
            {
              "internalType": "string",
              "name": "title",
              "type": "string"
            },
            {
              "internalType": "uint256",
              "name": "city",
              "type": "uint256"
            },
            {
              "internalType": "string",
              "name": "description",
              "type": "string"
            },
            {
              "internalType": "string",
              "name": "artist",
              "type": "string"
            },
            {
              "internalType": "string",
              "name": "coverImageUrl",
              "type": "string"
            },
            {
              "internalType": "uint256",
              "name": "category",
              "type": "uint256"
            },
            {
              "internalType": "bool",
              "name": "visibility",
              "type": "bool"
            }
          ],
          "internalType": "struct Tickbit.EventItem[]",
          "name": "",
          "type": "tuple[]"
        }
      ],
      "stateMutability": "view",
      "type": "function"
    },
    {
      "inputs": [],
      "name": "renounceOwnership",
      "outputs": [],
      "stateMutability": "nonpayable",
      "type": "function"
    },
    {
      "inputs": [
        {
          "internalType": "address",
          "name": "newOwner",
          "type": "address"
        }
      ],
      "name": "transferOwnership",
      "outputs": [],
      "stateMutability": "nonpayable",
      "type": "function"
    }
  ],
  "bytecode": "0x60806040523480156200001157600080fd5b506200001d3362000136565b620000a76040518060400160405280600c81526020016b22b6102730b737902a37bab960a11b81525060016040518061016001604052806101318152602001620018966101319139604051806040016040528060078152602001664d656c656e646960c81b815250604051806080016040528060568152602001620019c760569139600162000186565b620001306040518060400160405280600f81526020016e1898903930bd37b732b9903a37bab960891b81525060026040518060c001604052806092815260200162001abc6092913960405180604001604052806006815260200165416974616e6160d01b8152506040518060c00160405280609f815260200162001a1d609f9139600162000186565b620004dc565b600080546001600160a01b038381166001600160a01b0319831681178455604051919092169283917f8be0079c531659141344cd1fd0a4f28419497f9722a3daafe3b4186f6b6457e09190a35050565b6200019d60016200032760201b62000ded1760201c565b6000620001b660016200033060201b62000df61760201c565b604080516101208101825233815260208082018481528284018c8152606084018c9052608084018b905260a084018a905260c0840189905260e084018890526001610100850181905260008781526002808652969020855181546001600160a01b0319166001600160a01b0390911617815592519083015551805195965092949093620002499390850192019062000334565b5060608201516003820155608082015180516200027191600484019160209091019062000334565b5060a082015180516200028f91600584019160209091019062000334565b5060c08201518051620002ad91600684019160209091019062000334565b5060e08201516007820155610100909101516008909101805460ff1916911515919091179055604051819033907f84e64a04aefcadc6ab542a42d9e74fcc8f6c045a899ce6618bb8a03e42f2f5539062000316908b908b908b908b908b908b9060019062000428565b60405180910390a350505050505050565b80546001019055565b5490565b82805462000342906200049f565b90600052602060002090601f016020900481019282620003665760008555620003b1565b82601f106200038157805160ff1916838001178555620003b1565b82800160010185558215620003b1579182015b82811115620003b157825182559160200191906001019062000394565b50620003bf929150620003c3565b5090565b5b80821115620003bf5760008155600101620003c4565b60008151808452815b818110156200040157602081850181015186830182015201620003e3565b81811115620004135782602083870101525b50601f01601f19169290920160200192915050565b60e0815260006200043d60e083018a620003da565b8860208401528281036040840152620004578189620003da565b905082810360608401526200046d8188620003da565b90508281036080840152620004838187620003da565b60a0840195909552505090151560c09091015295945050505050565b600181811c90821680620004b457607f821691505b60208210811415620004d657634e487b7160e01b600052602260045260246000fd5b50919050565b6113aa80620004ec6000396000f3fe608060405234801561001057600080fd5b506004361061007d5760003560e01c80638da5cb5b1161005b5780638da5cb5b146100b257806395db8063146100cd578063e1ba30a9146100e0578063f2fde38b1461010057600080fd5b806306f70fcc14610082578063202ae6f2146100a0578063715018a6146100a8575b600080fd5b61008a610113565b60405161009791906111c2565b60405180910390f35b61008a6104d6565b6100b061088d565b005b6000546040516001600160a01b039091168152602001610097565b6100b06100db366004610fef565b6108c3565b6100f36100ee3660046110a9565b610a43565b60405161009791906112c7565b6100b061010e366004610fc1565b610d52565b6000546060906001600160a01b031633146101495760405162461bcd60e51b815260040161014090611292565b60405180910390fd5b600061015460015490565b90506000808267ffffffffffffffff81111561018057634e487b7160e01b600052604160045260246000fd5b6040519080825280602002602001820160405280156101b957816020015b6101a6610e4a565b81526020019060019003908161019e5790505b50905060005b838110156104ce5760006101d48260016112da565b60008181526002602081815260409283902083516101208101855281546001600160a01b03168152600182015492810192909252918201805494955091939092849290840191610223906112f2565b80601f016020809104026020016040519081016040528092919081815260200182805461024f906112f2565b801561029c5780601f106102715761010080835404028352916020019161029c565b820191906000526020600020905b81548152906001019060200180831161027f57829003601f168201915b50505050508152602001600382015481526020016004820180546102bf906112f2565b80601f01602080910402602001604051908101604052809291908181526020018280546102eb906112f2565b80156103385780601f1061030d57610100808354040283529160200191610338565b820191906000526020600020905b81548152906001019060200180831161031b57829003601f168201915b50505050508152602001600582018054610351906112f2565b80601f016020809104026020016040519081016040528092919081815260200182805461037d906112f2565b80156103ca5780601f1061039f576101008083540402835291602001916103ca565b820191906000526020600020905b8154815290600101906020018083116103ad57829003601f168201915b505050505081526020016006820180546103e3906112f2565b80601f016020809104026020016040519081016040528092919081815260200182805461040f906112f2565b801561045c5780601f106104315761010080835404028352916020019161045c565b820191906000526020600020905b81548152906001019060200180831161043f57829003601f168201915b50505091835250506007820154602082015260089091015460ff16151560409091015284518590879081106104a157634e487b7160e01b600052603260045260246000fd5b60209081029190910101526104b76001866112da565b9450505080806104c69061132d565b9150506101bf565b509250505090565b606060006104e360015490565b90506000808267ffffffffffffffff81111561050f57634e487b7160e01b600052604160045260246000fd5b60405190808252806020026020018201604052801561054857816020015b610535610e4a565b81526020019060019003908161052d5790505b50905060005b838110156104ce5733600260006105668460016112da565b81526020810191909152604001600020546001600160a01b0316141561087b5760006105938260016112da565b60008181526002602081815260409283902083516101208101855281546001600160a01b031681526001820154928101929092529182018054949550919390928492908401916105e2906112f2565b80601f016020809104026020016040519081016040528092919081815260200182805461060e906112f2565b801561065b5780601f106106305761010080835404028352916020019161065b565b820191906000526020600020905b81548152906001019060200180831161063e57829003601f168201915b505050505081526020016003820154815260200160048201805461067e906112f2565b80601f01602080910402602001604051908101604052809291908181526020018280546106aa906112f2565b80156106f75780601f106106cc576101008083540402835291602001916106f7565b820191906000526020600020905b8154815290600101906020018083116106da57829003601f168201915b50505050508152602001600582018054610710906112f2565b80601f016020809104026020016040519081016040528092919081815260200182805461073c906112f2565b80156107895780601f1061075e57610100808354040283529160200191610789565b820191906000526020600020905b81548152906001019060200180831161076c57829003601f168201915b505050505081526020016006820180546107a2906112f2565b80601f01602080910402602001604051908101604052809291908181526020018280546107ce906112f2565b801561081b5780601f106107f05761010080835404028352916020019161081b565b820191906000526020600020905b8154815290600101906020018083116107fe57829003601f168201915b50505091835250506007820154602082015260089091015460ff161515604090910152845185908790811061086057634e487b7160e01b600052603260045260246000fd5b60209081029190910101526108766001866112da565b945050505b806108858161132d565b91505061054e565b6000546001600160a01b031633146108b75760405162461bcd60e51b815260040161014090611292565b6108c16000610dfa565b565b6108d1600180546001019055565b60006108dc60015490565b604080516101208101825233815260208082018481528284018c8152606084018c9052608084018b905260a084018a905260c0840189905260e084018890526001610100850181905260008781526002808652969020855181546001600160a01b0319166001600160a01b039091161781559251908301555180519596509294909361096d93908501920190610ea1565b506060820151600382015560808201518051610993916004840191602090910190610ea1565b5060a082015180516109af916005840191602090910190610ea1565b5060c082015180516109cb916006840191602090910190610ea1565b5060e08201516007820155610100909101516008909101805460ff1916911515919091179055604051819033907f84e64a04aefcadc6ab542a42d9e74fcc8f6c045a899ce6618bb8a03e42f2f55390610a32908b908b908b908b908b908b90600190611223565b60405180910390a350505050505050565b610a4b610e4a565b600082815260026020526040902060010154610aa95760405162461bcd60e51b815260206004820152601c60248201527f5468697320636f6e747261637420646f6573206e6f74206578697374000000006044820152606401610140565b60008281526002602081815260409283902083516101208101855281546001600160a01b0316815260018201549281019290925291820180549193840191610af0906112f2565b80601f0160208091040260200160405190810160405280929190818152602001828054610b1c906112f2565b8015610b695780601f10610b3e57610100808354040283529160200191610b69565b820191906000526020600020905b815481529060010190602001808311610b4c57829003601f168201915b5050505050815260200160038201548152602001600482018054610b8c906112f2565b80601f0160208091040260200160405190810160405280929190818152602001828054610bb8906112f2565b8015610c055780601f10610bda57610100808354040283529160200191610c05565b820191906000526020600020905b815481529060010190602001808311610be857829003601f168201915b50505050508152602001600582018054610c1e906112f2565b80601f0160208091040260200160405190810160405280929190818152602001828054610c4a906112f2565b8015610c975780601f10610c6c57610100808354040283529160200191610c97565b820191906000526020600020905b815481529060010190602001808311610c7a57829003601f168201915b50505050508152602001600682018054610cb0906112f2565b80601f0160208091040260200160405190810160405280929190818152602001828054610cdc906112f2565b8015610d295780601f10610cfe57610100808354040283529160200191610d29565b820191906000526020600020905b815481529060010190602001808311610d0c57829003601f168201915b50505091835250506007820154602082015260089091015460ff16151560409091015292915050565b6000546001600160a01b03163314610d7c5760405162461bcd60e51b815260040161014090611292565b6001600160a01b038116610de15760405162461bcd60e51b815260206004820152602660248201527f4f776e61626c653a206e6577206f776e657220697320746865207a65726f206160448201526564647265737360d01b6064820152608401610140565b610dea81610dfa565b50565b80546001019055565b5490565b600080546001600160a01b038381166001600160a01b0319831681178455604051919092169283917f8be0079c531659141344cd1fd0a4f28419497f9722a3daafe3b4186f6b6457e09190a35050565b60405180610120016040528060006001600160a01b03168152602001600081526020016060815260200160008152602001606081526020016060815260200160608152602001600081526020016000151581525090565b828054610ead906112f2565b90600052602060002090601f016020900481019282610ecf5760008555610f15565b82601f10610ee857805160ff1916838001178555610f15565b82800160010185558215610f15579182015b82811115610f15578251825591602001919060010190610efa565b50610f21929150610f25565b5090565b5b80821115610f215760008155600101610f26565b600082601f830112610f4a578081fd5b813567ffffffffffffffff80821115610f6557610f6561135e565b604051601f8301601f19908116603f01168101908282118183101715610f8d57610f8d61135e565b81604052838152866020858801011115610fa5578485fd5b8360208701602083013792830160200193909352509392505050565b600060208284031215610fd2578081fd5b81356001600160a01b0381168114610fe8578182fd5b9392505050565b60008060008060008060c08789031215611007578182fd5b863567ffffffffffffffff8082111561101e578384fd5b61102a8a838b01610f3a565b9750602089013596506040890135915080821115611046578384fd5b6110528a838b01610f3a565b95506060890135915080821115611067578384fd5b6110738a838b01610f3a565b94506080890135915080821115611088578384fd5b5061109589828a01610f3a565b92505060a087013590509295509295509295565b6000602082840312156110ba578081fd5b5035919050565b60008151808452815b818110156110e6576020818501810151868301820152016110ca565b818111156110f75782602083870101525b50601f01601f19169290920160200192915050565b80516001600160a01b03168252600061012060208301516020850152604083015181604086015261113f828601826110c1565b915050606083015160608501526080830151848203608086015261116382826110c1565b91505060a083015184820360a086015261117d82826110c1565b91505060c083015184820360c086015261119782826110c1565b91505060e083015160e0850152610100808401516111b88287018215159052565b5090949350505050565b6000602080830181845280855180835260408601915060408160051b8701019250838701855b8281101561121657603f1988860301845261120485835161110c565b945092850192908501906001016111e8565b5092979650505050505050565b60e08152600061123660e083018a6110c1565b886020840152828103604084015261124e81896110c1565b9050828103606084015261126281886110c1565b9050828103608084015261127681876110c1565b60a0840195909552505090151560c09091015295945050505050565b6020808252818101527f4f776e61626c653a2063616c6c6572206973206e6f7420746865206f776e6572604082015260600190565b602081526000610fe8602083018461110c565b600082198211156112ed576112ed611348565b500190565b600181811c9082168061130657607f821691505b6020821081141561132757634e487b7160e01b600052602260045260246000fd5b50919050565b600060001982141561134157611341611348565b5060010190565b634e487b7160e01b600052601160045260246000fd5b634e487b7160e01b600052604160045260246000fdfea2646970667358221220028e587bada85a157bab135699467105928d5ec54d9400b9a615492979feaebe64736f6c6343000804003352616d6f6e204d656c656e646920457370696e612c20636f6e6f6369646f206172746973746963616d656e746520636f6d6f204d656c656e64692c20657320756e2063616e746175746f72207920636f6d706f7369746f7220657370616e6f6c206465206d757369636120706f7020792072756d62612e204465206a6f76656e2073656e74696120617472616363696f6e20706f7220656c20667574626f6c2c206465706f72746520717565206c6f20636f6e64756a6f20706f7220756e6120636f727461206361727265726120646520667574626f6c697374612c206465627574616e646f20656e207661726961732063617465676f7269617320696e666572696f72657320656e20656c2065717569706f206465207375206369756461642c20656c205265616c204f766965646f2e68747470733a2f2f7777772e6c6176616e677561726469612e636f6d2f66696c65732f696d6167655f3934385f3436352f75706c6f6164732f323031352f31322f31332f356661333038333361613165342e6a70656768747470733a2f2f686970732e686561727374617070732e636f6d2f686d672d70726f642e73332e616d617a6f6e6177732e636f6d2f696d616765732f616974616e612d31312d72617a6f6e65732d746f75722d6665636861732d63697564616465732d313631383331323532302e6a70673f63726f703d312e303078773a302e34303278683b302c302e30343438786826726573697a653d313230303a2a416974616e6120736520686120636f6e7665727469646f20656e20756e2066656e6f6d656e6f206d75736963616c207920736f6369616c2074726173207375207061736f20706f72204f7065726163696f6e20547269756e666f20656e2065737461207072696d6572612065646963696f6e206465206c61206e756576612065746170612064656c2070726f6772616d612e",
  "linkReferences": {},
  "deployedLinkReferences": {}
}