{
  "_format": "hh-sol-artifact-1",
  "contractName": "Tickbit",
  "sourceName": "contracts/Tickbit.sol",
  "abi": [
    {
      "inputs": [],
      "stateMutability": "nonpayable",
      "type": "constructor"
    },
    {
      "anonymous": false,
      "inputs": [
        {
          "indexed": true,
          "internalType": "address",
          "name": "previousOwner",
          "type": "address"
        },
        {
          "indexed": true,
          "internalType": "address",
          "name": "newOwner",
          "type": "address"
        }
      ],
      "name": "OwnershipTransferred",
      "type": "event"
    },
    {
      "inputs": [
        {
          "internalType": "address",
          "name": "contractAddress",
          "type": "address"
        },
        {
          "internalType": "string",
          "name": "title",
          "type": "string"
        },
        {
          "internalType": "string",
          "name": "city",
          "type": "string"
        },
        {
          "internalType": "string",
          "name": "description",
          "type": "string"
        },
        {
          "internalType": "string",
          "name": "artist",
          "type": "string"
        },
        {
          "internalType": "string",
          "name": "coverImageUrl",
          "type": "string"
        },
        {
          "internalType": "uint256",
          "name": "category",
          "type": "uint256"
        }
      ],
      "name": "createEvent",
      "outputs": [],
      "stateMutability": "nonpayable",
      "type": "function"
    },
    {
      "inputs": [],
      "name": "owner",
      "outputs": [
        {
          "internalType": "address",
          "name": "",
          "type": "address"
        }
      ],
      "stateMutability": "view",
      "type": "function"
    },
    {
      "inputs": [
        {
          "internalType": "uint256",
          "name": "id",
          "type": "uint256"
        }
      ],
      "name": "readEvent",
      "outputs": [
        {
          "components": [
            {
              "internalType": "uint256",
              "name": "id",
              "type": "uint256"
            },
            {
              "internalType": "address",
              "name": "contractAddress",
              "type": "address"
            },
            {
              "internalType": "string",
              "name": "title",
              "type": "string"
            },
            {
              "internalType": "string",
              "name": "city",
              "type": "string"
            },
            {
              "internalType": "string",
              "name": "description",
              "type": "string"
            },
            {
              "internalType": "string",
              "name": "artist",
              "type": "string"
            },
            {
              "internalType": "string",
              "name": "coverImageUrl",
              "type": "string"
            },
            {
              "internalType": "uint256",
              "name": "category",
              "type": "uint256"
            }
          ],
          "internalType": "struct Tickbit.EventItem",
          "name": "",
          "type": "tuple"
        }
      ],
      "stateMutability": "view",
      "type": "function"
    },
    {
      "inputs": [],
      "name": "renounceOwnership",
      "outputs": [],
      "stateMutability": "nonpayable",
      "type": "function"
    },
    {
      "inputs": [
        {
          "internalType": "address",
          "name": "newOwner",
          "type": "address"
        }
      ],
      "name": "transferOwnership",
      "outputs": [],
      "stateMutability": "nonpayable",
      "type": "function"
    }
  ],
  "bytecode": "0x60806040523480156200001157600080fd5b506200001d336200019d565b620000dc730a098eda01ce92ff4a4ccb7a4fffb5a43ebc70dc6040518060400160405280600c81526020016b22b6102730b737902a37bab960a11b8152506040518060400160405280600981526020016842617263656c6f6e6160b81b815250604051806101600160405280610131815260200162000ffb6101319139604051806040016040528060078152602001664d656c656e646960c81b8152506040518060800160405280605681526020016200112c605691396001620001ed565b62000197730a098eda01ce92ff4a4ccb7a4fffb5a43ebc70dc6040518060400160405280600f81526020016e1898903930bd37b732b9903a37bab960891b815250604051806040016040528060068152602001651358591c9a5960d21b8152506040518060c0016040528060928152602001620012216092913960405180604001604052806006815260200165416974616e6160d01b8152506040518060c00160405280609f815260200162001182609f91396001620001ed565b6200048d565b600080546001600160a01b038381166001600160a01b0319831681178455604051919092169283917f8be0079c531659141344cd1fd0a4f28419497f9722a3daafe3b4186f6b6457e09190a35050565b6000546001600160a01b031633146200024c5760405162461bcd60e51b815260206004820181905260248201527f4f776e61626c653a2063616c6c6572206973206e6f7420746865206f776e6572604482015260640160405180910390fd5b6200026360016200039d60201b620006ce1760201c565b60006200027c6001620003a660201b620006d71760201c565b60408051610100810182528281526001600160a01b038b811660208084019182528385018d8152606085018d9052608085018c905260a085018b905260c085018a905260e08501899052600087815260028084529690208551815592516001840180546001600160a01b031916919095161790935591518051959650929490936200030d93908501920190620003aa565b50606082015180516200032b916003840191602090910190620003aa565b506080820151805162000349916004840191602090910190620003aa565b5060a0820151805162000367916005840191602090910190620003aa565b5060c0820151805162000385916006840191602090910190620003aa565b5060e082015181600701559050505050505050505050565b80546001019055565b5490565b828054620003b89062000450565b90600052602060002090601f016020900481019282620003dc576000855562000427565b82601f10620003f757805160ff191683800117855562000427565b8280016001018555821562000427579182015b82811115620004275782518255916020019190600101906200040a565b506200043592915062000439565b5090565b5b808211156200043557600081556001016200043a565b600181811c908216806200046557607f821691505b602082108114156200048757634e487b7160e01b600052602260045260246000fd5b50919050565b610b5e806200049d6000396000f3fe608060405234801561001057600080fd5b50600436106100575760003560e01c8063715018a61461005c5780638da5cb5b14610066578063e1ba30a914610086578063f2fde38b146100a6578063f7a979dd146100b9575b600080fd5b6100646100cc565b005b6000546040516001600160a01b0390911681526020015b60405180910390f35b61009961009436600461096e565b61010b565b60405161007d9190610a06565b6100646100b4366004610867565b6104d9565b6100646100c7366004610888565b610574565b6000546001600160a01b031633146100ff5760405162461bcd60e51b81526004016100f6906109d1565b60405180910390fd5b61010960006106db565b565b61015c6040518061010001604052806000815260200160006001600160a01b031681526020016060815260200160608152602001606081526020016060815260200160608152602001600081525090565b6000828152600260205260409020546101b75760405162461bcd60e51b815260206004820152601c60248201527f5468697320636f6e747261637420646f6573206e6f742065786973740000000060448201526064016100f6565b6000828152600260208181526040928390208351610100810185528154815260018201546001600160a01b031692810192909252918201805491938401916101fe90610ad7565b80601f016020809104026020016040519081016040528092919081815260200182805461022a90610ad7565b80156102775780601f1061024c57610100808354040283529160200191610277565b820191906000526020600020905b81548152906001019060200180831161025a57829003601f168201915b5050505050815260200160038201805461029090610ad7565b80601f01602080910402602001604051908101604052809291908181526020018280546102bc90610ad7565b80156103095780601f106102de57610100808354040283529160200191610309565b820191906000526020600020905b8154815290600101906020018083116102ec57829003601f168201915b5050505050815260200160048201805461032290610ad7565b80601f016020809104026020016040519081016040528092919081815260200182805461034e90610ad7565b801561039b5780601f106103705761010080835404028352916020019161039b565b820191906000526020600020905b81548152906001019060200180831161037e57829003601f168201915b505050505081526020016005820180546103b490610ad7565b80601f01602080910402602001604051908101604052809291908181526020018280546103e090610ad7565b801561042d5780601f106104025761010080835404028352916020019161042d565b820191906000526020600020905b81548152906001019060200180831161041057829003601f168201915b5050505050815260200160068201805461044690610ad7565b80601f016020809104026020016040519081016040528092919081815260200182805461047290610ad7565b80156104bf5780601f10610494576101008083540402835291602001916104bf565b820191906000526020600020905b8154815290600101906020018083116104a257829003601f168201915b505050505081526020016007820154815250509050919050565b6000546001600160a01b031633146105035760405162461bcd60e51b81526004016100f6906109d1565b6001600160a01b0381166105685760405162461bcd60e51b815260206004820152602660248201527f4f776e61626c653a206e6577206f776e657220697320746865207a65726f206160448201526564647265737360d01b60648201526084016100f6565b610571816106db565b50565b6000546001600160a01b0316331461059e5760405162461bcd60e51b81526004016100f6906109d1565b6105ac600180546001019055565b60006105b760015490565b60408051610100810182528281526001600160a01b038b811660208084019182528385018d8152606085018d9052608085018c905260a085018b905260c085018a905260e08501899052600087815260028084529690208551815592516001840180546001600160a01b031916919095161790935591518051959650929490936106469390850192019061072b565b506060820151805161066291600384019160209091019061072b565b506080820151805161067e91600484019160209091019061072b565b5060a0820151805161069a91600584019160209091019061072b565b5060c082015180516106b691600684019160209091019061072b565b5060e082015181600701559050505050505050505050565b80546001019055565b5490565b600080546001600160a01b038381166001600160a01b0319831681178455604051919092169283917f8be0079c531659141344cd1fd0a4f28419497f9722a3daafe3b4186f6b6457e09190a35050565b82805461073790610ad7565b90600052602060002090601f016020900481019282610759576000855561079f565b82601f1061077257805160ff191683800117855561079f565b8280016001018555821561079f579182015b8281111561079f578251825591602001919060010190610784565b506107ab9291506107af565b5090565b5b808211156107ab57600081556001016107b0565b80356001600160a01b03811681146107db57600080fd5b919050565b600082601f8301126107f0578081fd5b813567ffffffffffffffff8082111561080b5761080b610b12565b604051601f8301601f19908116603f0116810190828211818310171561083357610833610b12565b8160405283815286602085880101111561084b578485fd5b8360208701602083013792830160200193909352509392505050565b600060208284031215610878578081fd5b610881826107c4565b9392505050565b600080600080600080600060e0888a0312156108a2578283fd5b6108ab886107c4565b9650602088013567ffffffffffffffff808211156108c7578485fd5b6108d38b838c016107e0565b975060408a01359150808211156108e8578485fd5b6108f48b838c016107e0565b965060608a0135915080821115610909578485fd5b6109158b838c016107e0565b955060808a013591508082111561092a578485fd5b6109368b838c016107e0565b945060a08a013591508082111561094b578384fd5b506109588a828b016107e0565b92505060c0880135905092959891949750929550565b60006020828403121561097f578081fd5b5035919050565b60008151808452815b818110156109ab5760208185018101518683018201520161098f565b818111156109bc5782602083870101525b50601f01601f19169290920160200192915050565b6020808252818101527f4f776e61626c653a2063616c6c6572206973206e6f7420746865206f776e6572604082015260600190565b602081528151602082015260006020830151610a2d60408401826001600160a01b03169052565b506040830151610100806060850152610a4a610120850183610986565b91506060850151601f1980868503016080870152610a688483610986565b935060808701519150808685030160a0870152610a858483610986565b935060a08701519150808685030160c0870152610aa28483610986565b935060c08701519150808685030160e087015250610ac08382610986565b92505060e085015181850152508091505092915050565b600181811c90821680610aeb57607f821691505b60208210811415610b0c57634e487b7160e01b600052602260045260246000fd5b50919050565b634e487b7160e01b600052604160045260246000fdfea264697066735822122073dea2d04fe609b7d41c76d06dd091cf6ca724580a0b32a961652897fde04e5364736f6c6343000804003352616d6f6e204d656c656e646920457370696e612c20636f6e6f6369646f206172746973746963616d656e746520636f6d6f204d656c656e64692c20657320756e2063616e746175746f72207920636f6d706f7369746f7220657370616e6f6c206465206d757369636120706f7020792072756d62612e204465206a6f76656e2073656e74696120617472616363696f6e20706f7220656c20667574626f6c2c206465706f72746520717565206c6f20636f6e64756a6f20706f7220756e6120636f727461206361727265726120646520667574626f6c697374612c206465627574616e646f20656e207661726961732063617465676f7269617320696e666572696f72657320656e20656c2065717569706f206465207375206369756461642c20656c205265616c204f766965646f2e68747470733a2f2f7777772e6c6176616e677561726469612e636f6d2f66696c65732f696d6167655f3934385f3436352f75706c6f6164732f323031352f31322f31332f356661333038333361613165342e6a70656768747470733a2f2f686970732e686561727374617070732e636f6d2f686d672d70726f642e73332e616d617a6f6e6177732e636f6d2f696d616765732f616974616e612d31312d72617a6f6e65732d746f75722d6665636861732d63697564616465732d313631383331323532302e6a70673f63726f703d312e303078773a302e34303278683b302c302e30343438786826726573697a653d313230303a2a416974616e6120736520686120636f6e7665727469646f20656e20756e2066656e6f6d656e6f206d75736963616c207920736f6369616c2074726173207375207061736f20706f72204f7065726163696f6e20547269756e666f20656e2065737461207072696d6572612065646963696f6e206465206c61206e756576612065746170612064656c2070726f6772616d612e",
  "linkReferences": {},
  "deployedLinkReferences": {}
}